:020000040000FA
:1000000000009D2A0830831685009F010730831267
:10001000990085018316A501A601831285190D2873
:1000200083162608803E803E031D182811302502C5
:1000300003180D2839238316A9007F08A8007E081D
:10004000A700FE002808FF00290822258316AB0020
:100050007F08AA002B04031D3A288312C201C301A2
:100060008312C401C5018312C601C7018312C801EE
:10007000C9010D2883162A08013A031D51282B08AF
:10008000003A031D512801308312C200C3018312BC
:10009000C401C5018312C601C7018312C801C90189
:1000A0000D2883162A08023A031D68282B08003AF7
:1000B000031D68288312C201C30101308312C400EA
:1000C000C5018312C601C7018312C801C9010D28E9
:1000D00083162A08033A031D80282B08003A031DC3
:1000E000802801308312C200C30101308312C40092
:1000F000C5018312C601C7018312C801C9010D28B9
:1001000083162A08043A031D97282B08003A031D7A
:1001100097288312C201C3018312C401C5010130B3
:100120008312C600C7018312C801C9010D288316B6
:100130002A08053A031DAF282B08003A031DAF28F3
:1001400001308312C200C3018312C401C501013012
:100150008312C600C7018312C801C9010D28831686
:100160002A08063A031DC7282B08003A031DC72892
:100170008312C201C30101308312C400C5010130E2
:100180008312C600C7018312C801C9010D28831656
:100190002A08073A031DE0282B08003A031DE0282F
:1001A00001308312C200C30101308312C400C501B3
:1001B00001308312C600C7018312C801C9010D288E
:1001C00083162A08083A031DF7282B08003A031D56
:1001D000F7288312C201C3018312C401C50183122F
:1001E000C601C70101308312C800C9010D2883165A
:1001F0002A08093A031D0F292B08003A031D0F296D
:1002000001308312C200C3018312C401C5018312ED
:10021000C601C70101308312C800C9010D28023090
:100220008316A7070318A80A0319A90A2708FE00BE
:100230002808FF00290822258316AB007F08AA00A2
:100240002B04031D30298312CA01CB018312CC0178
:10025000CD018312CE01CF018312D001D1010D282F
:1002600083162A08013A031D47292B08003A031D6B
:10027000472901308312CA00CB018312CC01CD0182
:100280008312CE01CF018312D001D1010D28831634
:100290002A08023A031D5E292B08003A031D5E2935
:1002A0008312CA01CB0101308312CC00CD0183122D
:1002B000CE01CF018312D001D1010D2883162A0867
:1002C000033A031D76292B08003A031D76290130D5
:1002D0008312CA00CB0101308312CC00CD018312FE
:1002E000CE01CF018312D001D1010D2883162A0837
:1002F000043A031D8D292B08003A031D8D29831212
:10030000CA01CB018312CC01CD0101308312CE0092
:10031000CF018312D001D1010D2883162A08053A96
:10032000031DA5292B08003A031DA52901308312BE
:10033000CA00CB018312CC01CD0101308312CE0063
:10034000CF018312D001D1010D2883162A08063A65
:10035000031DBD292B08003A031DBD298312CA01C4
:10036000CB0101308312CC00CD0101308312CE00CD
:10037000CF018312D001D1010D2883162A08073A34
:10038000031DD6292B08003A031DD62901308312FC
:10039000CA00CB0101308312CC00CD0101308312A1
:1003A000CE00CF018312D001D1010D2883162A0877
:1003B000083A031DED292B08003A031DED2983128D
:1003C000CA01CB018312CC01CD018312CE01CF0132
:1003D00001308312D000D1010D2883162A08093A72
:1003E000031D052A2B08003A031D052A013083123C
:1003F000CA00CB018312CC01CD018312CE01CF0103
:1004000001308312D000D1010D288316A701831279
:10041000851E0C2A8316A70A83162709A700270C16
:100420000318142A83128512031C182A83128516B6
:10043000831242088316A700270C0318212A83126F
:100440000510031C252A8312051483124408831601
:10045000A700270C03182E2A83128510031C322AAA
:1004600083128514831246088316A700270C0318ED
:100470003B2A83120511031C3F2A831205158312A0
:1004800048088316A700270C0318482A8312051270
:10049000031C4C2A831205160A30FF000030562533
:1004A0008316A7018312851E572A8316A70A83166F
:1004B0002709A700270C03185F2A83128512031C43
:1004C000632A8312851683124A088316A700270C15
:1004D00003186C2A83120510031C702A831205145A
:1004E00083124C088316A700270C0318792A83125D
:1004F0008510031C7D2A8312851483124E088316EF
:10050000A700270C0318862A83120511031C8A2AC8
:1005100083120515831250088316A700270C0318B1
:10052000932A83120512031C972A83120516831639
:10053000A50A0319A60A0D2808008130FE0005301F
:10054000FF00803000000000222500000000831220
:100550000000A1007F08A0008330A2000530A300A6
:10056000831200002008A4002108A500FF30A00786
:10057000031CA103250824040319352B043022078A
:10058000A400A501A50D2308A5072408FE00250841
:10059000FF008030000000002225000000008312D0
:1005A0000000A7007F08A6002208FE002308FF0025
:1005B00080300000000022250000000083120000AF
:1005C000A900A5007F08A400A80002302207A4000B
:1005D000A501A50D2308A5072408FE002508FF0096
:1005E000803000000000222500000000831200007F
:1005F000A500AB007F08AA00A40083120000260813
:10060000AA002708AB00FF30A607031CA7032B088E
:100610002A0403192E2B2808FE002908FF00803029
:100620000000000043250000000083120000AA0023
:1006300024088312031384008313831200002518F7
:1006400083172A0883120313800083120000A80A6C
:100650000319A90AA40A0319A50AFD2A0630831260
:100660000000A2070318A30AB02A00000000022815
:100670000800831252088316A000831253088316C1
:10068000A10003108312530C8316A3008312520C93
:100690008316A2000310A30CA20C2208A0062308B4
:1006A000A10603108312530C8316A3008312520C6D
:1006B0008316A2000310A30CA20C0310A30CA20C1F
:1006C0002208A0062308A1068312520E0F398316B2
:1006D000A2008312530E8316A300F039A204A306CE
:1006E0000310A30CA20C2208A0062308A1060130C7
:1006F000A005A10103108312530C8316A3008312DB
:10070000520CD2008316A200200CA401A40C2408D1
:1007100023048312D3006430FD000030FE00520831
:10072000FF0053089B248316A1007F08A0000A3015
:10073000FD000030FE002008FF0021083A24831647
:10074000A3007F08A2008316B40083162308831633
:10075000B5000A30FD000030FE0083162008FF00BF
:100760002108D4238316A1007F08A0000A30FD00D1
:100770000030FE002008FF0021083A248316A10063
:100780007F08A0008316B600831621088316B700E1
:1007900000308316A100B430A000A2012008FE00A2
:1007A0002108FF000030080083160000B9007F0810
:1007B000B8007E08BB007D08BA000314B91F0310FF
:1007C000BC01BC0D3C080319ED2B3809BD003909EB
:1007D000BE00BD0A0319BE0AF32B831600003808B9
:1007E000BD003908BE00831600003D08B8003E0871
:1007F000B9000314BB1F0310BD01BD0D3D08031953
:10080000092C3A09BE003B09BF00BE0A0319BF0A02
:100810000F2C831600003A08BE003B08BF00831669
:1008200000003E08BA00FD003F08BB00FE0038088B
:10083000FF00390800000000E824000000008316D3
:100840000000B9007F08B8003D08BC063C08031949
:10085000342C3809BC003909BA00BC0A0319BA0A99
:100860003C08FF003A08392C831600003808FF00C6
:100870003908080083120000BC007F08BB007E0816
:10088000BE007D08BD000314BC1F0310BF01BF0DD7
:100890003F080319532C3B09C0003C09C100C00AA2
:1008A0000319C10A592C831200003B08C0003C0800
:1008B000C100831200004008BB004108BC000314C3
:1008C000BE1F0310031C6C2C3D09C0003E09C10073
:1008D000C00A0319C10A722C831200003D08C0002F
:1008E0003E08C100831200004008BD00FD00410821
:1008F000BE00FE003B08FF003C08000000009B24F7
:100900000000000083120000BC007F08BB003F080D
:100910000319952C3B09BF003C09BD00BF0A031910
:10092000BD0A3F08FF003D089A2C831200003B08D7
:10093000FF003C08080083120000B5007F08B400E7
:100940007E08B7007D08B600B801B9018312000027
:1009500037088039031D0130BA003A08031DC72C3F
:100960000310B60DB70D37083502031DB92C360834
:1009700034020318C12C031083120000B70CB60C0C
:10098000C72C83120000B90A3908B800A62C8312BC
:10099000000037083502031DCF2C36083402031C33
:1009A000D92C831200003608B4023708031C370F15
:1009B000B502031083120000B70CB60C3808B9005A
:1009C000B8033908031DC72C3408FF003508080098
:1009D00083120000AD007F08AC007E08AF007D08E8
:1009E000AE00B001B1011030B200831200002D083A
:1009F0008039031D0130B3000310AC0DAD0D0310A1
:100A0000B00DB10D3308031D30142F083102031D42
:100A10000B2D2E083002031C162D831200002E0809
:100A2000B0022F08031C2F0FB1022C1483120000F8
:100A30003203B300B2003308031DF52C2C08FF006D
:100A40002D080800003A03192A2D803A0319342D85
:100A5000FF0100347E08840083137F188317000889
:100A6000FF00840A00080800000000005125FD0076
:100A7000FE0FFF03FF0A000000005125FC007D0867
:100A8000FF007C080800003A03194A2D803A031938
:100A9000512D00347E08840083137F1883170008CB
:100AA00008007F088A007E08820008008316AD00D7
:100AB0007F08AC00AE01AF0183162D082F02031D85
:100AC000632D2C082E020318802DFB308316B000F6
:100AD0000430B100FF3083163007B200FF30B3009E
:100AE00031080318310FB3073208B0003308B100E2
:100AF00033083204031D6A2DAE0A0319AF0A5C2DB8
:100B00000800023400348F34053452340034023487
:100B10000034913405345434003401340034E13469
:040B2000AC340034BD
:02400E00D73F9A
:00000001FF
