:020000040000FA
:100000000000DB2908308316850008309F00073088
:1000100083129900850105120511851005108316BC
:10002000AA01AB0183162B082A04031D9228AC01F8
:100030008312851D1D288316AC0A83162C08013AED
:10004000031D92280030FD000030FC0083163508A7
:10005000FE003608FF0037081C25023083163507DE
:100060008316AC00AD01AD0D831636088316AD07BF
:10007000AE01AE0D831637088316AE070030FD00C3
:100080000030FC002C08FE002D08FF002E081C2567
:1000900083163508FE003608FF003708FB24831658
:1000A000B0007F08AF00FF00300878230A30FF005F
:1000B000003065258316AF018312851E61288316E3
:1000C000AF0A83162F09AF002F0C0318692883127B
:1000D0008512031C6D288312851683162C08FE00DA
:1000E0002D08FF002E08FB248316B0007F08AF0008
:1000F000FF003008D9230A30FF0000306525831641
:10010000AC018312851E86288316AC0A83162C093F
:10011000AC002C0C03188E2883128512031C922825
:100120008312851683163508FE003608FF0037084F
:10013000FB248316AD007F08AC00FF002D08782358
:100140000A30FF00003065258316AC018312851E3E
:10015000AB288316AC0A83162C09AC002C0C0318B0
:10016000B32883128512031CB72883128516023028
:10017000831635078316AC00AD01AD0D8316360826
:100180008316AD07AE01AE0D831637088316AE0792
:100190002C08FE002D08FF002E08FB248316B0005B
:1001A0007F08AF00FF003008D9230A30FF0000307D
:1001B00065258316AC018312851EE0288316AC0AE0
:1001C00083162C09AC002C0C0318E8288312851226
:1001D000031CEC28831285168312851912288316B6
:1001E0002B08803E803E031DF72811302A02031899
:1001F000052977228316B7007F08B6007E08B50070
:100200008316AA0A0319AB0A12280821122808002B
:100210009E30FE000530FF008030E8248316A800E1
:100220000139A900290C0318172983120512031C90
:100230001B29831205169E30FE000530FF0080301A
:10024000E8248316A8000239031D0130A900290CF7
:1002500003182C2983120511031C3029831205155C
:100260009E30FE000530FF008030E8248316A80091
:100270000439031D0130A900290C031841298312F8
:100280008510031C4529831285149E30FE0005301D
:10029000FF008030E8248316A8000839031D0130D0
:1002A000A900290C0318562983120510031C5A298A
:1002B000831205140130FF00003065258316A80164
:1002C0008312851E65298316A80A83162809A800AB
:1002D000280C03186D2983128512031C71298312BF
:1002E00085169E30FE000530FF008030E82483161E
:1002F000A8000139A900290C0318802983120512CE
:10030000031C8429831205169E30FE000530FF0071
:100310008030E8248316A8000239031D0130A900AB
:10032000290C0318952983120511031C992983129E
:1003300005159E30FE000530FF008030E82483164E
:10034000A8000439031D0130A900290C0318AA29AB
:1003500083128510031CAE29831285149E30FE0083
:100360000530FF008030E8248316A8000839031DFB
:100370000130A900290C0318BF2983120510031CA2
:10038000C329831205140130FF0000306525831650
:10039000A8018312851ECE298316A80A8316280970
:1003A000A800280C0318D62983128512031CDA2909
:1003B0008312851608009030FE000530FF00803063
:1003C00000000000FB240000000083120000A100D8
:1003D0007F08A0009230A2000530A3008312000025
:1003E0002008A4002108A500FF30A007031CA103DA
:1003F000250824040319732A04302207A400A50148
:10040000A50D2308A5072408FE002508FF0080305D
:1004100000000000FB240000000083120000A70081
:100420007F08A6002208FE002308FF00803000009D
:100430000000FB240000000083120000A900A500BA
:100440007F08A400A80002302207A400A501A50D82
:100450002308A5072408FE002508FF0080300000BF
:100460000000FB240000000083120000A500AB0088
:100470007F08AA00A400831200002608AA0027080B
:10048000AB00FF30A607031CA7032B082A0403199F
:100490006C2A2808FE002908FF00803000000000B8
:1004A000E8240000000083120000AA002408831240
:1004B00003138400831383120000251883172A086E
:1004C00083120313800083120000A80A0319A90AEB
:1004D000A40A0319A50A3B2A063083120000A207CA
:1004E0000318A30AEE290000000002280800831266
:1004F00042088316A100831243088316A00003104C
:100500008312430C8316A2008312420C8316A300AD
:100510000310A20CA30C2308A1062208A0060310B6
:100520008312430C8316A2008312420C8316A3008D
:100530000310A20CA30C0310A20CA30C2308A10609
:100540002208A0068312420E0F398316A3008312DD
:10055000430E8316A200F039A304A2060310A20CD6
:10056000A30C2308A1062208A0060130A105A001C2
:1005700003108312430C8316A2008312420CC200A4
:100580008316A300210CA401A40C240822048312C6
:10059000C3006430FD000030FE004208FF00430845
:1005A0009B248316A0007F08A1000A30FD000030C4
:1005B000FE002108FF0020083A248316A2007F08CD
:1005C000A3008316B100831622088316B2000A30F6
:1005D000FD000030FE0083162108FF0020081223D2
:1005E0008316A0007F08A1000A30FD000030FE0045
:1005F0002108FF0020083A248316A0007F08A100EC
:100600008316B300831620088316B40000308316C7
:10061000A000B130A100A3012108FE002008FF00C6
:100620000030080083160000B9007F08B8007E087B
:10063000BB007D08BA000314B91F0310BC01BC0D38
:100640003C0803192B2B3809BD003909BE00BD0A2F
:100650000319BE0A312B831600003808BD00390883
:10066000BE00831600003D08B8003E08B900031420
:10067000BB1F0310BD01BD0D3D080319472B3A09EF
:10068000BE003B09BF00BE0A0319BF0A4D2B8316EB
:1006900000003A08BE003B08BF00831600003E0879
:1006A000BA00FD003F08BB00FE003808FF00390813
:1006B000000000002B250000000083160000B90098
:1006C0007F08B8003D08BC063C080319722B3809A6
:1006D000BC003909BA00BC0A0319BA0A3C08FF0079
:1006E0003A08772B831600003808FF003908080005
:1006F0008316A1007F08A0009E3EA00021080318D9
:10070000210F053EA1002008FE002108FF008030D7
:10071000E8248316A2000139A300230C0318922BAE
:1007200083120512031C962B8312051683162008CC
:10073000FE002108FF008030E8248316A200023961
:10074000031D0130A300230C0318A82B83120511ED
:10075000031CAC2B8312051583162008FE0021080C
:10076000FF008030E8248316A2000439031D013005
:10077000A300230C0318BE2B83128510031CC22B6D
:100780008312851483162008FE002108FF008030A4
:10079000E8248316A2000839031D0130A000200CB4
:1007A0000318D42B83120510031CD82B83120514B5
:1007B00008008316A1007F08A0009E3EA00021082B
:1007C0000318210F053EA1002008FE002108FF00AC
:1007D0008030E8248316A2000139A300230C0318FB
:1007E000F32B83120512031CF72B831205168316B5
:1007F0002008FE002108FF008030E8248316A200B4
:100800000239031D0130A300230C0318092C8312A5
:100810000511031C0D2C8312051583162008FE00FC
:100820002108FF008030E8248316A2000439031D4C
:100830000130A300230C03181F2C83128510031C06
:10084000232C8312851483162008FE002108FF0044
:100850008030E8248316A2000839031D0130A0006F
:10086000200C0318352C83120510031C392C83121D
:100870000514080083120000BC007F08BB007E083E
:10088000BE007D08BD000314BC1F0310BF01BF0DD7
:100890003F080319532C3B09C0003C09C100C00AA2
:1008A0000319C10A592C831200003B08C0003C0800
:1008B000C100831200004008BB004108BC000314C3
:1008C000BE1F0310031C6C2C3D09C0003E09C10073
:1008D000C00A0319C10A722C831200003D08C0002F
:1008E0003E08C100831200004008BD00FD00410821
:1008F000BE00FE003B08FF003C08000000009B24F7
:100900000000000083120000BC007F08BB003F080D
:100910000319952C3B09BF003C09BD00BF0A031910
:10092000BD0A3F08FF003D089A2C831200003B08D7
:10093000FF003C08080083120000B5007F08B400E7
:100940007E08B7007D08B600B801B9018312000027
:1009500037088039031D0130BA003A08031DC72C3F
:100960000310B60DB70D37083502031DB92C360834
:1009700034020318C12C031083120000B70CB60C0C
:10098000C72C83120000B90A3908B800A62C8312BC
:10099000000037083502031DCF2C36083402031C33
:1009A000D92C831200003608B4023708031C370F15
:1009B000B502031083120000B70CB60C3808B9005A
:1009C000B8033908031DC72C3408FF003508080098
:1009D000003A0319EF2C803A0319F62C00347E08F4
:1009E000840083137F188317000808007F088A009B
:1009F0007E0882000800003A0319032D803A03198B
:100A00000D2DFF0100347E08840083137F188317A7
:100A10000008FF00840A0008080000000000F62417
:100A2000FD00FE0FFF03FF0A00000000F624FC009B
:100A30007D08FF007C080800003A0319202D0800FB
:100A40007E08840083137F1883177C088000840A43
:100A50007D088000080083120000AD007F08AC0014
:100A60007E08AF007D08AE00B001B1011030B200C9
:100A7000831200002D088039031D0130B3000310DC
:100A8000AC0DAD0D0310B00DB10D3308031D3014C6
:100A90002F083102031D4E2D2E083002031C592D44
:100AA000831200002E08B0022F08031C2F0FB10282
:100AB0002C14831200003203B300B2003308031D6C
:100AC000382D2C08FF002D0808008316A1007F0890
:100AD000A000A201A301831621082302031D722D89
:100AE0002008220203188F2DFB308316A400043047
:100AF000A500FF3083162407A600FF30A7002508B5
:100B00000318250FA7072608A4002708A500270813
:100B10002604031D792DA20A0319A30A6B2D0800D0
:100B200002340034A8340534423400340234003432
:100B3000AA34053444340034013400343F340634DC
:100B40005B344F3466346D347D3407347F346F3416
:060B5000E134AC34003476
:02400E00D73F9A
:00000001FF
